:020000040000FA
:100000000A128A11EE2FFF1B0D2883137F18831706
:100010000008840A0319FF0A080000308A00040857
:10002000840A82070034483465346C346C346F348D
:10003000203457346F346C347234643400345334A5
:10004000773465346534743420344A346534733419
:10005000753473340034483469342034743468346B
:10006000653472346534003459346F342034593473
:040070006F340034B5
:100CAA000730831603139F00850188010800F200AC
:100CBA0083120313851205127208880085110A121D
:100CCA008A11A5260A128A118312031385150800B0
:100CDA00F200831203138516051272088800851123
:100CEA000A128A11A5260A128A118312031385157C
:100CFA0008007E088A007F0882000A128A117E266E
:100D0A000A128A118000840A04087D060319003435
:100D1A00FF0A0319FE0A822E4C3449344E344534F4
:100D2A00203444344F344534533420344E344F3411
:100D3A005434203445345834493453345434003408
:100D4A00F001F1010130F0070318F10A0030F10750
:100D5A007108803AFF0093307F02031DB62E883057
:100D6A007002031CB92EBA2EA72E08008312031391
:100D7A0005150E300A128A115C260A128A110130F0
:100D8A000A128A115C260A128A1138300A128A114A
:100D9A005C260A128A110800FA01FB017308F8009E
:100DAA007408F900002F7A087307F6007408F50032
:100DBA000318F50AFA1FE22EF5037508F7007708FB
:100DCA0083120313FF00760884000A128A11032093
:100DDA000A128A110A128A116D260A128A11013020
:100DEA00FA070318FB0A0030FB070130F80703185B
:100DFA00F90A0030F907790883120313FF0078080B
:100E0A0084000A128A1103200A128A11003A031D69
:100E1A000F2F102FD82E08000A128A1155260A12EF
:100E2A008A110A128A11BB260A128A110F300A1273
:100E3A008A115C260A128A11033083120313A00056
:100E4A000030A1000130FC007C08A2000A128A11BD
:100E5A0061270A128A11023083120313A00000309C
:100E6A00A1001930FC007C08A2000A128A1161272D
:100E7A000A128A11043083120313A0000030A10061
:100E8A002230FC007C08A2000A128A1161270A1289
:100E9A008A11013083120313A0000030A1000D3023
:100EAA00FC007C08A2000A128A1161270A128A1120
:100EBA005D2F0A128A1100288312031320082104C5
:100ECA000319682F692F6F2F20032104031D6E2F2A
:100EDA006F2F832F80300A128A115C260A128A1118
:100EEA00831203132208F3000030031D8030F4003C
:100EFA000A128A11D1260A128A11ED2F023020060F
:100F0A002104031D892F8A2F912F90300A128A11EA
:100F1A005C260A128A11752F033020062104031D4C
:100F2A00972F982F9F2F88300A128A115C260A124F
:100F3A008A11752F043020062104031DA52FA62F20
:100F4A00AD2F98300A128A115C260A128A11752F5F
:100F5A00200821040319B22FB32FED2F20032104F7
:100F6A000319B82FB92FED2F0230200621040319D7
:100F7A00BF2FC02FED2F0330200621040319C62FDF
:100F8A00C72FED2F0430200621040319CD2FCE2FB1
:100F9A00ED2F273084003B30A3000408A40014304E
:100FAA00A5002308840083130008A600A30A2408C6
:100FBA00840026088000A40AA50BD62F2730F30048
:100FCA000030F4000A128A11D1260A128A11ED2F72
:100FDA00080083134F30FD000630FE009130FF00F9
:100FEA003B3084000A128A1182260A128A1183016E
:060FFA000A128A11112FFA
:02400E00323F3F
:00000001FF
