:020000040000FA
:100000000A128A11EE2FFF1B0D2883137F18831706
:100010000008840A0319FF0A080000308A00040857
:10002000840A820700346D347934203447343F34F5
:0200300000349A
:100D2A000730831603139F00850188010800F2002B
:100D3A0083120313851205127208880085110A129C
:100D4A008A11D1260A128A11831203138515080003
:100D5A00F2008312031385160512720888008511A2
:100D6A000A128A11D1260A128A11831203138515CF
:100D7A0008007E088A007F0882000A128A11BE26AD
:100D8A000A128A118000840A04087D0603190034B5
:100D9A00FF0A0319FE0AC22EF001F1010130F00721
:100DAA000318F10A0030F1077108803AFF00933006
:100DBA007F02031DE22E88307002031CE52EE62E08
:100DCA00D32E08008312031305150E300A128A1156
:100DDA009C260A128A1101300A128A119C260A12CA
:100DEA008A1138300A128A119C260A128A110800BE
:100DFA00493427346D3420346334683469346C34AC
:100E0A006C34003457347534733420346734753491
:100E1A00643400346D347934203467347534793469
:100E2A0000340134FA01FB017308F8007408F90070
:100E3A00462F7A087307F6007408F5000318F50AB6
:100E4A00FA1F282FF5037508F70077088312031392
:100E5A00FF00760884000A128A1103200A128A11F6
:100E6A000A128A11AD260A128A110130FA070318EA
:100E7A00FB0A0030FB070130F8070318F90A0030B3
:100E8A00F907790883120313FF00780884000A120D
:100E9A008A1103200A128A11003A031D552F562F70
:100EAA001E2F08000A128A1195260A128A110A129E
:100EBA008A11E7260A128A110F300A128A119C2611
:100ECA000A128A112E308400483083120313A000BC
:100EDA000408A1000830A200200884008313000837
:100EEA00A300A00A2108840023088000A10AA20BFB
:100EFA00712F2E30F3000030F4000A128A111727DE
:100F0A000A128A1190300A128A119C260A128A1130
:100F1A00831203135708A0002008BD003D08F30000
:100F2A000030031D8030F4000A128A1117270A12B2
:100F3A008A1188300A128A119C260A128A112430D0
:100F4A0084003E3083120313A0000408A1000A3073
:100F5A00A2002008840083130008A300A00A210825
:100F6A00840023088000A10AA20BAE2F2430F300CC
:100F7A000030F4000A128A1117270A128A119830CF
:100F8A000A128A119C260A128A11363084005030BD
:100F9A0083120313A0000408A1000730A20020084E
:100FAA00840083130008A300A00A210884002308F0
:100FBA008000A10AA20BD42F3630F3000030F400CF
:100FCA000A128A1117270A128A11EA2F0A128A119B
:100FDA00002883135830FD000630FE00FD30FF0064
:100FEA003E3084000A128A11C2260A128A1183012B
:060FFA000A128A11572FB4
:02400E00323F3F
:00000001FF
