:020000040000FA
:060000000A128A11E12F33
:1007D4000730831603139F00850188010800C03485
:1007E400F934A434B034993492348234F8348034F3
:1007F4009034F2007008F1007108F3000130F30244
:10080400031D052C062C002C0130F202031D0B2CB9
:100814000C2CFC2B08000A128A11EA230A128A11F2
:100824000A128A1198260A128A110A128A111B26A0
:100834000A128A11122C0A128A1100287E088A00D0
:100844007F0882000A128A1120240A128A11800069
:10085400840A04087D0603190034FF0A0319FE0AFA
:10086400242CF5010830F4007408F6000310F50C8C
:1008740083120313051083160313051000000000F0
:10088400000000000000000083160313051400009C
:10089400000000000000000083120313051C532C09
:1008A400542C552CF5170730F4007408F00002306E
:1008B4000A128A11FB230A128A110130F602760801
:1008C400031D652C662C382C75080800700871040B
:1008D40003196D2C6E2C9D2CF501F50A7C2C01302E
:1008E4000310F00DF10DFF3E031D722C0130F400D6
:1008F4007408F507F11F7F2C802C712C710873028A
:10090400031D862C70087202031C892C8A2C902CDF
:100914007008F2027108031CF303F30201300310A0
:10092400F10CF00CFF3E031D912C0130F502031D68
:100934009C2C9D2C802C7308F1007208F000080098
:10094400F501F50AD62C831203130510831603133D
:1009540005104630F4007408F00002300A128A11BF
:10096400FB230A128A118316031305140830F400BA
:100974007408F00002300A128A11FB230A128A1149
:1009840083120313051CC72CC82CCB2CF501F50AC4
:10099400CC2CF5013C30F4007408F00002300A124B
:1009A4008A11FB230A128A117508031DDA2CDB2C29
:1009B400A52C0800F7000830F4007408F800770844
:1009C4000139F4007408F60083120313051083162A
:1009D400031305100000000000000000000076036F
:1009E400031DF52CF62CF92C83160313051407307C
:1009F400F4007408F00002300A128A11FB230A1270
:100A04008A11831603130514000000007708F4000C
:100A14000310740CF5007508F7000130F80278082B
:100A2400031D152D162DE12C0800FB01FC01760891
:100A3400770403191E2D1F2D562DFD01FD0A2D2DA2
:100A440001300310F60DF70DFF3E031D232D013079
:100A5400FA007A08FD07F71F302D312D222D0130C1
:100A64000310FB0DFC0DFF3E031D322D77087902A8
:100A7400031D3E2D76087802031C412D422D492D7D
:100A84007608F8027708031CF903F9027B14013095
:100A94000310F70CF60CFF3E031D4A2D0130FD0236
:100AA400031D552D562D312D7C08F7007B08F600CB
:100AB4000800F601F31F5F2D602D672DF209F3097D
:100AC400F20A0319F30AF601F60AF11F6A2D6B2DD7
:100AD400702DF009F109F00A0319F10A7008710484
:100AE4000319752D762DA52DF501F50A842D0130F8
:100AF4000310F00DF10DFF3E031D7A2D0130F400BB
:100B04007408F507F11F872D882D792D710873025C
:100B1400031D8E2D70087202031C912D922D982DA9
:100B24007008F2027108031CF303F302013003108E
:100B3400F10CF00CFF3E031D992D0130F502031D4D
:100B4400A42DA52D882D76080319A92DAA2DAF2D26
:100B5400F209F309F20A0319F30A7308F10072089F
:100B6400F0000800F601F11FB82DB92DC02DF009D1
:100B7400F109F00A0319F10AF601F60AF31FC32D6D
:100B8400C42DCD2DF209F309F20A0319F30A013039
:100B9400F4007408F606F701F801700871040319EB
:100BA400D42DD52D0C2EF501F50AE32D01300310BB
:100BB400F00DF10DFF3E031DD92D0130F400740832
:100BC400F507F11FE62DE72DD82D01300310F70DA1
:100BD400F80DFF3E031DE82D71087302031DF42D6B
:100BE40070087202031CF72DF82DFF2D7008F20215
:100BF4007108031CF303F302771401300310F10CA2
:100C0400F00CFF3E031D002E0130F502031D0B2ED8
:100C14000C2EE72D76080319102E112E162EF70927
:100C2400F809F70A0319F80A7808F1007708F000C0
:100C340008008316031385018312031328082D3E2D
:100C440084008313000888003E3085004630F40099
:100C54007408F0000A300A128A11FB230A128A115E
:100C64008312031327082D3E8400831300087F3961
:100C740088003D3085004630F4007408F0000A30E6
:100C84000A128A11FB230A128A11831203132608FB
:100C94002D3E84008313000888003B3085004630D5
:100CA400F4007408F0000A300A128A11FB230A12B5
:100CB4008A118312031325082D3E84008313000830
:100CC4008800373085004630F4007408F0000A309C
:100CD4000A128A11FB230A128A11831203132408AD
:100CE4002D3E84008313000888002F308500463091
:100CF400F4007408F0000A300A128A11FB230A1265
:100D04008A118312031323082D3E840083130008E1
:100D140088001F3085004630F4007408F0000A3063
:100D24000A128A11FB230A128A110800831603137C
:100D340005140A128A11A2240A128A11CC300A124A
:100D44008A11DC240A128A1144300A128A11DC2422
:100D54000A128A11143083120313BB000030BC0042
:100D64000A128A111B260A128A11FF3083120313F6
:100D7400BB070318BC0AFF30BC073C08803AFF00DD
:100D840080307F02031DC82E01303B020318CB2E96
:100D9400CC2EB22E0A128A11A2240A128A11CC3045
:100DA4000A128A11DC240A128A11BE300A128A112C
:100DB400DC240A128A110A128A1133240A128A11B3
:100DC40083120313B7003708AC000A128A113324C4
:100DD4000A128A1183120313B7003708AB00831673
:100DE40003130514831203132B08B70004300310F4
:100DF400B70DFF3E031DF92E3F303705B8002C0810
:100E0400B90004300310B90CFF3E031D042F390848
:100E14003804BA003A08AA002C08B70003300310BB
:100E2400B70DFF3E031D112F0310370DB80038080E
:100E3400A9000A30F0000030F1002A08B700B80118
:100E44003708F2003808F3000A128A115B250A12E7
:100E54008A11700883120313B9003908A7000A30F5
:100E6400F0000030F1002A08B700B8013708F2009A
:100E74003808F3000A128A11B4250A128A1170087C
:100E840083120313B9003908A800A001A101A91F06
:100E94004C2F4D2F552F2008883EA0002108031801
:100EA400013E133EA100291F582F592F612F2008FE
:100EB400C43EA00021080318013E093EA100A91E5A
:100EC400642F652F6D2F2008E23EA000210803182F
:100ED400013E043EA100291E702F712F792F200896
:100EE400713EA00021080318013E023EA100E83033
:100EF400F6000330F7002108F9002008F8000A1270
:100F04008A1117250A128A11760883120313B7006F
:100F14003708A6006430F6000030F7002108F3001B
:100F24002008F200E830F0000330F1000A128A11C0
:100F340068240A128A117108F9007008F8000A126C
:100F44008A1117250A128A11760883120313B7002F
:100F54003708A5000A30F6000030F7002108F30036
:100F64002008F2006430F0000030F1000A128A1107
:100F740068240A128A117108F9007008F8000A122C
:100F84008A1117250A128A11760883120313B700EF
:100F94003708A4000A30F0000030F1002108F30003
:100FA4002008F2000A128A1168240A128A117008B1
:100FB40083120313B7003708A3000000080083134B
:100FC4003730FD000330FE00F130FF002D30840087
:100FD4000A128A1124240A128A11A001A101A20171
:100FE400A301A401A501A601A701A801A901AA01C1
:0C0FF400AB01AC0183010A128A110D2C24
:02400E00323F3F
:00000001FF
