:020000040000FA
:060000000A128A11FC2F18
:100F4000F001F1010130F0070318F10A0030F10758
:100F500000307102323003197002031CB02FB12F20
:100F6000A22F08008316031385018801FE30831227
:100F700003138500F93088000A128A11A0270A128B
:100F80008A11FD30831203138500A43088000A12F1
:100F90008A11A0270A128A11FB30831203138500DD
:100FA000B03088000A128A11A0270A128A11F7307D
:100FB000831203138500993088000A128A11A02732
:100FC0000A128A11EF3083120313850092308800D1
:100FD0000A128A11A0270A128A11DF308312031322
:100FE0008500823088000A128A11A0270A128A110D
:100FF000B62F0A128A11002883010A128A11B22F11
:02400E00323F3F
:00000001FF
