:020000040000FA
:060000000A128A11D32F41
:10065E000730831603139F00850188010800F200FE
:10066E0083120313851205127208880085110A126F
:10067E008A11B8230A128A118312031385150800F2
:10068E00F200831203138516051272088800851175
:10069E000A128A11B8230A128A11831203138515BE
:1006AE000800F2007008F1007108F3000130F30247
:1006BE00031D622B632B5D2B0130F202031D682B91
:1006CE00692B592B08000A128A112F230A128A113C
:1006DE000A128A118A260A128A110A128A11CE2346
:1006EE000A128A116F2B0A128A1100287E088A00BC
:1006FE007F0882000A128A117D230A128A11800055
:10070E00840A04087D0603190034FF0A0319FE0A41
:10071E00812B4C3449344E344534203444344F34D8
:10072E004534533420344E344F345434203445340D
:10073E005834493453345434003430343134323430
:10074E003334343435343634373438343934C034C1
:10075E00F934A434B034993492348234F834803479
:10076E009034F001F1010130F0070318F10A003066
:10077E00F1077108803AFF0093307F02031DC92BE9
:10078E0088307002031CCC2BCD2BBA2B0800FC0139
:10079E00831203135B083E3E840083130008FB00A4
:1007AE007B08FC000130F8000030F9007C30FB00C3
:1007BE007B08FA000A128A11F5250A128A1108001E
:1007CE00F700F401F5017708F3007308F600042C26
:1007DE0074087707F3007308840000080A128A1160
:1007EE0047230A128A110130F4070318F50A003064
:1007FE00F5070130F3007308F607760884008313BB
:10080E000008031D0B2C0C2CEF2B0800F5010830F3
:10081E00F4007408F6000310F50C83120313051090
:10082E0083160313051000000000000000000000F6
:10083E0000008316031305140000000000000000E2
:10084E00000083120313051C2D2C2E2C2F2CF517B4
:10085E000730F4007408F00002300A128A1158238F
:10086E000A128A110130F6027608031D3F2C402C25
:10087E00122C75080800700871040319472C482CB7
:10088E00772CF501F50A562C01300310F00DF10D01
:10089E00FF3E031D4C2C0130F4007408F507F11FC8
:1008AE00592C5A2C4B2C71087302031D602C7008A6
:1008BE007202031C632C642C6A2C7008F2027108FD
:1008CE00031CF303F30201300310F10CF00CFF3E96
:1008DE00031D6B2C0130F502031D762C772C5A2C40
:1008EE007308F1007208F0000800F501F50AB02C4B
:1008FE008312031305108316031305104630F400FC
:10090E007408F00002300A128A1158230A128A1152
:10091E008316031305140830F4007408F000023037
:10092E000A128A1158230A128A1183120313051C04
:10093E00A12CA22CA52CF501F50AA62CF5013C3014
:10094E00F4007408F00002300A128A1158230A12B9
:10095E008A117508031DB42CB52C7F2C0800F700E6
:10096E000830F4007408F80077080139F4007408B0
:10097E00F6008312031305108316031305100000EF
:10098E0000000000000000007603031DCF2CD02CC9
:10099E00D32C8316031305140730F4007408F000EB
:1009AE0002300A128A1158230A128A11831603136F
:1009BE000514000000007708F4000310740CF50015
:1009CE007508F7000130F8027808031DEF2CF02CA3
:1009DE00BB2C0800FB01FC01760877040319F82CE8
:1009EE00F92C302DFD01FD0A072D01300310F60DF7
:1009FE00F70DFF3E031DFD2C0130FA007A08FD07AE
:100A0E00F71F0A2D0B2DFC2C01300310FB0DFC0DD6
:100A1E00FF3E031D0C2D77087902031D182D760855
:100A2E007802031C1B2D1C2D232D7608F802770847
:100A3E00031CF903F9027B1401300310F70CF60CBA
:100A4E00FF3E031D242D0130FD02031D2F2D302DE1
:100A5E000B2D7C08F7007B08F6000800F601F31F4B
:100A6E00392D3A2D412DF209F309F20A0319F30A31
:100A7E00F601F60AF11F442D452D4A2DF009F10914
:100A8E00F00A0319F10A7008710403194F2D502D45
:100A9E007F2DF501F50A5E2D01300310F00DF10DDD
:100AAE00FF3E031D542D0130F4007408F507F11FAD
:100ABE00612D622D532D71087302031D682D700870
:100ACE007202031C6B2D6C2D722D7008F2027108D0
:100ADE00031CF303F30201300310F10CF00CFF3E84
:100AEE00031D732D0130F502031D7E2D7F2D622D0A
:100AFE0076080319832D842D892DF209F309F20A44
:100B0E000319F30A7308F1007208F0000800F601E9
:100B1E00F11F922D932D9A2DF009F109F00A031968
:100B2E00F10AF601F60AF31F9D2D9E2DA72DF2094F
:100B3E00F309F20A0319F30A0130F4007408F606F9
:100B4E00F701F801700871040319AE2DAF2DE62DD3
:100B5E00F501F50ABD2D01300310F00DF10DFF3E2C
:100B6E00031DB32D0130F4007408F507F11FC02DDD
:100B7E00C12DB22D01300310F70DF80DFF3E031DF0
:100B8E00C22D71087302031DCE2D70087202031C54
:100B9E00D12DD22DD92D7008F2027108031CF3034A
:100BAE00F302771401300310F10CF00CFF3E031D1D
:100BBE00DA2D0130F502031DE52DE62DC12D760847
:100BCE000319EA2DEB2DF02DF709F809F70A031991
:100BDE00F80A7808F1007708F00008007808790420
:100BEE000319FA2DFB2D012E78037904031D002E17
:100BFE00012E0E2E80300A128A1136230A128A1105
:100C0E007A080A128A11E7230A128A11892E0230F3
:100C1E0078067904031D142E152E222E90300A12FA
:100C2E008A1136230A128A117A080A128A11E723C8
:100C3E000A128A11892E033078067904031D282E94
:100C4E00292E362E88300A128A1136230A128A115C
:100C5E007A080A128A11E7230A128A11892E0430A1
:100C6E0078067904031D3C2E3D2E4A2E98300A122A
:100C7E008A1136230A128A117A080A128A11E72378
:100C8E000A128A11892E7808790403194F2E502ED4
:100C9E00892E780379040319552E562E892E02308B
:100CAE007806790403195C2E5D2E892E03307806A2
:100CBE0079040319632E642E892E04307806790484
:100CCE0003196A2E6B2E892E24308400A0308312D5
:100CDE000313A0000408A1001430A2002008840011
:100CEE0083130008A300A00A2108840023088000B3
:100CFE00A10AA20B752E24300A128A11E7230A12BA
:100D0E008A11892E08008316031305140A128A11FC
:100D1E007C240A128A11CC300A128A11B6240A12C5
:100D2E008A1144300A128A11B6240A128A1114301A
:100D3E0083120313BC000030BD000A128A11CE23A9
:100D4E000A128A11FF3083120313BC070318BD0A5F
:100D5E00FF30BD073D08803AFF0080307F02031D43
:100D6E00BA2E01303C020318BD2EBE2EA42E0A123E
:100D7E008A117C240A128A11CC300A128A11B624E6
:100D8E000A128A11BE300A128A11B6240A128A1168
:100D9E000A128A110D240A128A1183120313B80043
:100DAE003808DF000A128A110D240A128A118312E2
:100DBE000313B8003808DE008316031305148312DC
:100DCE0003135E08B80004300310B80DFF3E031D78
:100DDE00EB2E3F303805B9005F08BA00043003101F
:100DEE00BA0CFF3E031DF62E3A083904BB003B0831
:100DFE00DD005F08B80003300310B80DFF3E031D81
:100E0E00032F0310380DB9003908DC000A30F0004A
:100E1E000030F1005D08B800B9013808F200390859
:100E2E00F3000A128A1135250A128A1170088312EC
:100E3E000313BA003A08DA000A30F0000030F1006D
:100E4E005D08B800B9013808F2003908F3000A123B
:100E5E008A118E250A128A11700883120313BA00A2
:100E6E003A08DB00D201D301DC1F3E2F3F2F472F64
:100E7E005208883ED20053080318013E133ED30099
:100E8E005C1F4A2F4B2F532F5208C43ED2005308DB
:100E9E000318013E093ED300DC1E562F572F5F2F3D
:100EAE005208E23ED20053080318013E043ED3001E
:100EBE005C1E622F632F6B2F5208713ED2005308B7
:100ECE000318013E023ED300E830F6000330F7006F
:100EDE005308F9005208F8000A128A11F1240A1276
:100EEE008A11760883120313B8003808D9006430CB
:100EFE00F6000030F7005308F3005208F200E83015
:100F0E00F0000330F1000A128A1142240A128A11EB
:100F1E007108F9007008F8000A128A11F1240A12F9
:100F2E008A11760883120313B8003808D8000A30E5
:100F3E00F6000030F7005308F3005208F200643058
:100F4E00F0000030F1000A128A1142240A128A11AE
:100F5E007108F9007008F8000A128A11F1240A12B9
:100F6E008A11760883120313B8003808D7000A30A6
:100F7E00F0000030F1005308F3005208F2000A129C
:100F8E008A1142240A128A11700883120313B800C0
:100F9E003808D600000008008313B430FD0003307B
:100FAE00FE009030FF00A03084000A128A118123C7
:100FBE000A128A115230FD000330FE00A430FF00E9
:100FCE003E3084000A128A1181230A128A11D2013C
:100FDE00D301D401D501D601D701D801D901DA0147
:100FEE00DB01DC01DD01DE01DF0183010A128A1162
:020FFE006A2B5C
:02400E00323F3F
:00000001FF
