:020000040000FA
:100000000A128A11EE2FFF1B0D2883137F18831706
:100010000008840A0319FF0A080000308A00040857
:10002000840A820700346D347934203447343F34F5
:0200300000349A
:100DEA000730831603139F008501880108005734D2
:100DFA007534733420346734753464340034013400
:100E0A00F2008312031385100511720888008511F8
:100E1A000A128A114D270A128A11831203138515A1
:100E2A000800F20083120313851405117208880062
:100E3A0085110A128A114D270A128A118312031385
:100E4A00851508000E300A128A1105270A128A111E
:100E5A0001300A128A1105270A128A1138300A1239
:100E6A008A1105270A128A1108007E088A007F085B
:100E7A0082000A128A113A270A128A118000840A09
:100E8A0004087D0603190034FF0A0319FE0A3E2FDF
:100E9A00F001F1010130F0070318F10A0030F107FF
:100EAA007108803AFF0093307F02031D5E2F88305D
:100EBA007002031C612F622F4F2F0800FA01FB01F9
:100ECA007308F8007408F900922F7A087307F6007D
:100EDA007408F5000318F50AFA1F742FF50375084C
:100EEA00F700770883120313FF00760884000A12BA
:100EFA008A1103200A128A110A128A1116270A1263
:100F0A008A110130FA070318FB0A0030FB07013087
:100F1A00F8070318F90A0030F9077908831203134E
:100F2A00FF00780884000A128A1103200A128A1123
:100F3A00003A031DA12FA22F6A2F08000A128A1154
:100F4A00F5260A128A110A128A1127270A128A1109
:100F5A000F300A128A1105270A128A1124308400D6
:100F6A002D3083120313A0000408A1000830A20048
:100F7A002008840083130008A300A00A2108840023
:100F8A0023088000A10AA20BBD2F2430F3000030F1
:100F9A00F4000A128A1163270A128A11C0300A124F
:100FAA008A1105270A128A11831203133508A00031
:100FBA002008AC002C08F3000030031D8030F40038
:100FCA000A128A1163270A128A11EA2F0A128A114F
:100FDA00002883133630FD000630FE00FC30FF0087
:100FEA002D3084000A128A113E270A128A118301BF
:060FFA000A128A11A32F68
:02400E00323F3F
:00000001FF
