:020000040000FA
:100000000A128A11DB2FF2007008F1007108F30068
:100010000130F302031D08280130F2020319080021
:1000200004287C037D04031D1D28EB30F300903071
:10003000F4000A168A115E21080002307C067D0455
:10004000031D2A28E330F3009030F4000A168A11C9
:100050005E21080003307C067D04031D3728DF3055
:10006000F3009030F4000A168A115E210800043073
:100070007C067D04031D4428F730F3009030F40023
:100080000A168A115E21080005307C067D04031DD6
:100090005128E730F3009030F4000A168A115E21EF
:1000A000080006307C067D04031D5E28F330F30053
:1000B0009030F4000A168A115E21080007307C0691
:1000C0007D04031D0800EF30F3009030F4000A16A1
:1000D0008A115E2108000A168A15F2240A128A1172
:1000E0000A128A1500200A128A110A168A15972503
:1000F0000A128A110A168A1500250A128A110A168E
:100100008A1161230A128A110A168A150C270A120B
:100110008A110A128A15B1230A128A110A168A153F
:10012000EE240A128A110A168A1160220A128A1112
:100130004203031DAF284303031DAF280A168A1587
:10014000EE240A128A110A128A1501220A128A1151
:1001500001300A168A15CB250A128A1107290A16B8
:100160008A1160220A128A114203031DCC28023030
:100170004306031DCC280A168A15EE240A128A119A
:100180000A128A11CA230A128A1101300A168A1524
:10019000CB250A128A1107290A168A1160220A122F
:1001A0008A114203031DE92803304306031DE92891
:1001B0000A168A15EE240A128A110A168A11F522E5
:1001C0000A128A1101300A168A15CB250A128A11E1
:1001D00007290A168A1160220A128A11043042067F
:1001E000031D072904304306031D07290A168A1533
:1001F000EE240A128A1100302E02143003192D0247
:10020000031C07290911B501B50AAD01AE012A3059
:100210002102031C3D2919302202031C2429953098
:100220000A168A15CB250A128A119E30F3009030E7
:10023000F4000A168A115E210A128A110A168A111E
:1002400064260A128A117F2806302202031C0F2915
:1002500095300A168A15CB250A128A118C30F300C4
:100260009030F4000A168A115E210A128A110A16C9
:100270008A119C250A128A117F2830305E020318E9
:100280007F282030220203180F290730252901304A
:100290000A168A15CB250A128A1180300A168A1589
:1002A000CB250A128A112030F3009030F4000A1690
:1002B0008A115E210A128A1190300A168A15CB25FE
:1002C0000A128A11C630F3009030F4000A168A111F
:1002D0005E210A128A116708303E0A168A15AF2578
:1002E0000A128A116608303E0A168A15AF250A12CC
:1002F0008A113C30F3009030F4000A168A115E2116
:100300000A128A113808303E0A168A15AF250A12D9
:100310008A1188300A168A15CB250A128A11C13033
:10032000F3009030F4000A168A115E210A128A1135
:100330006508303E0A168A15AF250A128A11370859
:10034000303E0A168A15AF250A128A113C30F30096
:100350009030F4000A168A115E210A128A113608BA
:10036000303E0A168A15AF250A128A11C401C5014A
:100370000A168A1160220A128A1102304206031DEF
:10038000C8294303031DC8290A168A15EE2408004C
:100390000A168A1160220A128A1103304206031DCE
:1003A000102A4303031D102A0A168A15EE240A1286
:1003B0008A1190300A168A15CB250A128A11063046
:1003C000F3009030F4000A168A115E210A128A1195
:1003D00090300A168A15CB250A128A11C630F3000E
:1003E0009030F4000A168A115E210A128A116708F9
:1003F000303E0A168A15AF250A128A116608303E69
:100400000A168A15AF250A128A113C30F300903083
:10041000F4000A168A115E210A128A113808B029DE
:100420000A168A1160220A128A1104304206031D3C
:10043000622A4303031D622A0A168A15EE240A1251
:100440008A1188300A168A15CB250A128A110630BD
:10045000F3009030F4000A168A115E210A128A1104
:1004600088300A168A15CB250A128A11C130F3008A
:100470009030F4000A168A115E210A128A1165086A
:10048000303E0A168A15AF250A128A113708303E07
:100490000A168A15AF250A128A113C30F3009030F3
:1004A000F4000A168A115E210A128A113608303EBB
:1004B0000A168A15AF250A128A110130C4000030CD
:1004C000C500B8290A168A1160220A128A1104305E
:1004D0004206031D162B02304306031D162B0A1677
:1004E0008A15EE240A128A1144084504031DC52A00
:1004F0006708FC00FD017C08AB007D08AC006608C5
:10050000FC00FD017C08A9007D08AA003808FC0059
:10051000FD017C08A7007D08A8000A168A15E126BF
:100520000A128A11831203132B08FC007C08E700CF
:100530002908FC007C08E6002708FC007C08B800BD
:1005400092300A168A15CB250A128A116708303EA6
:100550000A168A15AF250A128A116608303E0A1655
:100560008A15AF250A128A113C30F3009030F4004E
:100570000A168A115E210A128A113808303E0A16BC
:100580008A15AF250A128A11B82944034504031DB0
:10059000B8296508FC00FD017C08AB007D08AC00B3
:1005A0003708FC00FD017C08A9007D08AA00360878
:1005B000FC00FD017C08A7007D08A8000A168A152A
:1005C000E1260A128A11831203132B08FC007C080F
:1005D000E5002908FC007C08B7002708FC007C081F
:1005E000B6008A300A168A15CB250A128A116508C8
:1005F000303E0A168A15AF250A128A113708303E96
:100600000A168A15AF250A128A113C30F300903081
:10061000F4000A168A115E210A128A113608303E49
:100620000A168A15AF250A128A11B8290A168A11E4
:1006300060220A128A1103304206031DB8290230D3
:100640004306031DB8290A168A15EE240A128A11D8
:1006500044084504031D792B6708FC00FD017C0854
:10066000AB007D08AC006608FC00FD017C08A90019
:100670007D08AA003808FC00FD017C08A7007D0861
:10068000A8000A168A11A7220A128A1183120313DC
:100690002B08FC007C08E7002908FC007C08E60029
:1006A0002708FC007C08B80092300A168A15CB2572
:1006B0000A128A116708303E0A168A15AF250A12F7
:1006C0008A116608303E0A168A15AF250A128A1169
:1006D0003C30F3009030F4000A168A115E210A12B1
:1006E0008A113808303E0A168A15AF250A128A1177
:1006F000B82944034504031DB8296508FC00FD0121
:100700007C08AB007D08AC003708FC00FD017C08CC
:10071000A9007D08AA003608FC00FD017C08A7009E
:100720007D08A8000A168A11A7220A128A118312CC
:1007300003132B08FC007C08E5002908FC007C085A
:10074000B7002708FC007C08B6008A300A168A1514
:10075000CB250A128A116508303E0A168A15AF2584
:100760000A128A113708303E0A168A15AF250A1276
:100770008A113C30F3009030F4000A168A115E2191
:100780000A128A113608303E0A168A15AF250A1257
:100790008A11B82901300A168A15CB250A128A1146
:1007A00080300A168A15CB250A128A115B30F300B5
:1007B0009030F4000A168A115E210A128A119030D4
:1007C0000A168A15CB250A128A110A168A112C27B5
:1007D0000A128A114008CA00CB014A08FC004B08E3
:1007E000FD000A128A1111200A128A1198300A1685
:1007F0008A15CB250A128A113E30F3009030F4009E
:100800000A168A115E210A128A110330DB000030B9
:10081000DC000A168A1160220A128A11023042068E
:1008200003194303031908000A168A1160220A12E9
:100830008A1102304206031D292C02304306031D93
:10084000292C4008CA004A08E2000A168A158F2699
:1008500008000A168A1160220A128A110430420620
:10086000031DA52C4303031DA52C0A168A15EE248F
:100870000A128A1106305B065C040319832C0130CE
:10088000DB070318DC0A0030DC0705305B065C047C
:10089000031D612C7730C4000030C5003030C60025
:1008A0000030C7005C08C9005B08C8000A168A113E
:1008B0001B240A128A110A168A156F250A128A1138
:1008C000092C04305B065C04031D092C6D30C40048
:1008D0000030C5003030C6000030C7005C08C900D9
:1008E0005B08C8000A168A111B240A128A11831297
:1008F00003135C08F4005B08F3000A128A150E204B
:100900000A128A115B2C06305B065C04031D092C5D
:100910007930C4000030C5003030C6000030C70058
:100920005C08C9005B08C8000A168A111B240A1259
:100930008A11831203135C08F4005B08F3000A12A7
:100940008A150E200A128A115B2C0A168A1160225F
:100950000A128A1103304206031DC82C4303031DEB
:10096000C82C0A168A15EE240A128A1103305B0677
:100970005C040319C12CFF30DB070318DC0AFF30CD
:10098000442C03305B065C04031D092C64304B2CA3
:100990000A168A1160220A128A1103304206031DC8
:1009A000C22D02304306031DC22D0A168A15EE24FD
:1009B0000A128A1103305B065C04031DF12C6430BB
:1009C000C4000030C5006430C6000030C7005C08B9
:1009D000C9005B08C8000A168A111B240A128A1172
:1009E000092C05305B065C04031D142D400303191C
:1009F0005B2C0130C0028B300A168A15CB250A12F7
:100A00008A114008CA00CB014A08FC004B08FD00CF
:100A10000A128A1111200A128A118B300A168A15BD
:100A2000CB250A128A115B2C04305B065C04031D83
:100A30002B2D6D30C4000030C5006430C60000307E
:100A4000C7005C08C9005B08C8000A168A111B248D
:100A50000A128A11092C06305B065C04031D092C5E
:100A60003030C4000030C5003130C6000030C7004F
:100A70005C08C9005B08C8000A168A111B240A1208
:100A80008A11831203135B085D3E84008313000800
:100A90000319B62D5B085D3E840010300006031973
:100AA000892D5B085D3E8400203000060319892DE6
:100AB0005B085D3E8400303000060319892D5B0819
:100AC0005D3E8400403000060319892D5B085D3EC1
:100AD0008400503000060319892D5B085D3E8400B8
:100AE000603000060319892D5B085D3E840070307C
:100AF00000060319892D5B085D3E840080300006E6
:100B00000319892D5B085D3E840090300006031DAB
:100B1000B12DCF01D0015008803AFF0080307F0214
:100B2000031D942D06304F020318A52D83120313C5
:100B30005B085D3E84000130831380020130CF07E3
:100B40000318D00A0030D0078B2D831203135C08E2
:100B5000F4005B08F3000A128A150E200A128A11AB
:100B6000092C5B085D3E8400013080028312031370
:100B70005C08F4005B08F3000A128A150E200A12C2
:100B80008A115B2C0A168A1160220A128A1104301B
:100B90004206031D092C02304306031D092C0A16C8
:100BA0008A15EE240A128A1103305B065C04031DC9
:100BB000F32E5C08F4005B08F3000A128A150E207D
:100BC0000A128A1102306106031DB82E6308CA009A
:100BD00004300310CA0CFF3E031DE92D4A080F39EB
:100BE000CB004B08CC0063080F39CA004A08CD007F
:100BF0000A30CA004A08F0004C080A168A152A254D
:100C00000A128A114D07CB004B08CE004E0803395B
:100C1000031D622E303060060319122E313060063B
:100C2000031D242E2930CA004A08E0005C08F400A5
:100C30005B08F3000A128A150E200A128A110A169E
:100C40008A156F250A128A11831203135B085D3E11
:100C500084000930831300060319352E5B085D3EBE
:100C6000840019300006031D532ED101D201520811
:100C7000803AFF0080307F02031D402E0730510272
:100C80000318B62D013083120313CA005B085D3EC2
:100C900084004A08831380070130D1070318D20A61
:100CA0000030D207372E5B085D3E840029300006F5
:100CB00003195B2C0130CA005B085D3E84004A08C2
:100CC0008007B62D630803390319092C30306006FC
:100CD0000319722E313060060319722E2930600616
:100CE000031D842E2830CA004A08E0005C08F40086
:100CF0005B08F3000A128A150E200A128A110A16DE
:100D00008A156F250A128A11831203135B085D3E50
:100D100084000930831300060319952E5B085D3E9D
:100D2000840019300006031DB32ED301D4015408EA
:100D3000803AFF0080307F02031DA02E073053024F
:100D40000318B62D013083120313CA005B085D3E01
:100D500084004A08831380070130D3070318D40A9C
:100D60000030D407972E5B085D3E84002830572E54
:100D70005B085D3E840031308313000603195B2C51
:100D80005B085D3E8400093000060319D52E5B0820
:100D90005D3E8400193000060319D52E5B085D3EC8
:100DA000840029300006031D5A2ED501D6015608AD
:100DB000803AFF0080307F02031DE02E073055028D
:100DC0000318B62D013083120313CA005B085D3E81
:100DD00084004A08831380070130D5070318D60A18
:100DE0000030D607D72E05305B065C04031D192F93
:100DF0000730400603195B2C0130CA004A08C007BF
:100E00008B300A168A15CB250A128A114008CA00AF
:100E1000CB014A08FC004B08FD000A128A11112080
:100E20000A128A118B300A168A15CB250A128A11EA
:100E30005B2C04305B065C04031D5E2F6D30C40028
:100E40000030C5003130C6000030C7005C08C90062
:100E50005B08C8000A168A111B240A128A11831221
:100E600003135B085D3E84001230831300060319F0
:100E7000B62D5B085D3E840009300006031D5A2E26
:100E8000D701D8015808803AFF0080307F02031D47
:100E90004B2F073057020318B62D0130831203136E
:100EA000CA005B085D3E84004A0883138007013056
:100EB000D7070318D80A0030D807422F06305B0640
:100EC0005C04031D092C3030C4000030C5003130F3
:100ED000C6000030C7005C08C9005B08C8000A16DD
:100EE0008A111B240A128A11831203135B085D3EC8
:100EF00084009930831300060319B62D5B085D3E0C
:100F00008400093000060319BD2F5B085D3E840094
:100F1000193000060319BD2F5B085D3E840029309F
:100F200000060319BD2F5B085D3E840039300006C2
:100F30000319BD2F5B085D3E84004930000603198C
:100F4000BD2F5B085D3E8400593000060319BD2F9C
:100F50005B085D3E8400693000060319BD2F5B0805
:100F60005D3E8400793000060319BD2F5B085D3EAD
:100F7000840089300006031D5A2ED901DA015A086F
:100F8000803AFF0080307F02031DC82F07305902CE
:100F90000318B62D013083120313CA005B085D3EAF
:100FA00084004A08831380070130D9070318DA0A3E
:100FB0000030DA07BF2F8313AA30FD001D30FE007A
:100FC0001030FF00A03084000A168A153F250A124F
:100FD0008A116E30FD001D30FE004C30FF005D3088
:100FE00084000A168A153F250A128A1120308400CF
:100FF00044300A168A15082583010A128A116B28C3
:101000000A168A15F9240A128A150A168A151A254B
:101010000A128A150A168A158F26080073087404A6
:1010200003191728063073067404031D1928943019
:101030002F287303740403192228043073067404E0
:10104000031D242892302F280230730674040319DC
:101050002E28033073067404031D342890300A16BA
:101060008A15CB250A128A1573085D3E8400831306
:101070000008F039F500F6017508F7007608F80069
:10108000770E0F39F700780EF039F704780E0F3924
:10109000F800F030F81D0030F8047708303E0A16EA
:1010A0008A15AF250A128A157808F6007708F50028
:1010B000F50EF60EF030F60575080F39F604F0302F
:1010C000F5057508F7007608F80073085D3E8400A2
:1010D000831300080F39F500F6017508F70076084C
:1010E000F8007708303E0A168A15AF250A128A15CD
:1010F0007308740403198128063073067404031DF1
:10110000862894300A168A15CB25080073037404C8
:1011100003198F28043073067404031D9428923039
:101120000A168A15CB2508000230730674040319C9
:101130009E28033073067404031D080090300A16BD
:101140008A15CB250800643046064704031D09298B
:1011500048085D3E840083130008031909294808E4
:101160005D3E8400103000060319D92848085D3E12
:101170008400203000060319D92848085D3E840009
:10118000303000060319D92848085D3E84004030FD
:1011900000060319D92848085D3E84005030000637
:1011A0000319D92848085D3E840060300006031DFD
:1011B0000329CA01CB018312031348085D3E840052
:1011C0000130831380020130CA070318CB0A0030B4
:1011D000CB074B08803AFF0080307F02031DF228C6
:1011E00007304A02031CDB28831203134908F4006A
:1011F0004808F3000A128A150E200A128A150A16E8
:101200008A156F25080048085D3E84000130800281
:10121000F428683044064504031D4F29693046060A
:101220004704031D4F2948085D3E84002330831383
:10123000000603194F2948085D3E84000930000666
:101240000319292948085D3E840019300006031D52
:101250004729CC01CD010130F9008312031348085E
:101260005D3E84007908831380070130CC070318A2
:10127000CD0A0030CD074D08803AFF0080307F0254
:10128000031D442907304C020318F4282B29013090
:10129000F90048085D3E840079088007F42868302A
:1012A00044064504031D6629693046064704031DAC
:1012B000662948085D3E8400233083130006031D21
:1012C000662948085D3E84008001F42868304406A1
:1012D00045040319C029693046064704031DC02987
:1012E00048085D3E84005930831300060319C02965
:1012F00048085D3E8400093000060319A229480809
:101300005D3E8400193000060319A22948085D3E9D
:101310008400293000060319A22948085D3E840094
:10132000393000060319A22948085D3E840049307F
:1013300000060319A22948085D3E840059300006C2
:10134000031D4729CE01CF010130F9008312031399
:1013500048085D3E84007908831380070130CE077A
:101360000318CF0A0030CF074F08803AFF008030C3
:101370007F02031DBD2907304E020318F428A4295B
:10138000693046064704031DCD2948085D3E8400A8
:101390005930831300060319612964304606470457
:1013A000031DF428683044064504031DE02948085D
:1013B0005D3E840083130008031DE0292330ED29DE
:1013C0006D3044064504031DF42948085D3E840041
:1013D00083130008031DF4295930F90048085D3EC5
:1013E000840079088000F428733044064504031D06
:1013F000080048085D3E840083130008031D0800B0
:10140000EC2901300A168A15CB250A128A1580307C
:101410000A168A15CB250A128A154D30F300903032
:10142000F4000A168A115E210A128A1590300A16F3
:101430008A15CB250A128A150A168A11D7240A1290
:101440008A1588300A168A15CB250A128A152F307C
:10145000F3009030F4000A168A115E210A128A15F0
:10146000D001D1010A168A1160220A128A150230AF
:10147000420603194303031908000A168A11602261
:101480000A128A1502304206031D4E2A0230430614
:10149000031D4E2A0A168A158F2608000A168A117D
:1014A00060220A128A1503304206031DC82A43032C
:1014B000031DC82A0A168A15EE240A128A1502305C
:1014C000500651040319A32A0130D0070318D10A8A
:1014D0000030D10750035104031D322A88300A1608
:1014E0008A15CB250A128A150030F3009030F400DB
:1014F0000A168A115E210A128A1588300A168A1580
:10150000CB250A128A158530F3009030F4000A16B4
:101510008A115E210A128A156D30C4000030C500A0
:101520003030C6000030C7005108C9005008C8005C
:101530000A128A15A3200A128A150A168A156F251F
:101540000A128A15322A023050065104031D322A2B
:1015500088300A168A15CB250A128A150030F30046
:101560009030F4000A168A115E210A128A1588301A
:101570000A168A15CB250A128A15DA30F300903044
:10158000F4000A168A115E210A128A1568308D2A23
:101590000A168A1160220A128A1504304206031DB7
:1015A000072B4303031D072B0A168A15EE240A1284
:1015B0008A15500851040319E32AFF30D007031895
:1015C000D10AFF30692A50085104031D322A88309D
:1015D0000A168A15CB250A128A150030F3009030BE
:1015E000F4000A168A115E210A128A1588300A163A
:1015F0008A15CB250A128A157630F3009030F40054
:101600000A168A115E210A128A1573308D2A0A166B
:101610008A1160220A128A1503304206031D5C2BD0
:1016200002304306031D5C2B0A168A15EE240A12AB
:101630008A1550085104031D2F2B7330C40000304D
:10164000C5006430C6000030C7005108C90050080A
:10165000C8000A128A15A3200A128A15322A5003DA
:101660005104031D452B6D30C4000030C5006430AB
:10167000C6000030C7005108C9005008C8000A124F
:101680008A15A3200A128A15322A02305006510404
:10169000031D322A6830C4000030C5006430C60023
:1016A0000030C7005108C9005008C8000A128A1546
:1016B000A3200A128A15322A0A168A1160220A12F7
:1016C0008A1504304206031D322A02304306031DE8
:1016D000322A0A168A15EE240A128A155008510475
:1016E000031D842B7330C4000030C5006930C60070
:1016F0000030C7005108C9005008C8000A128A15F6
:10170000A3200A128A15322A50035104031D9A2B72
:101710006D30C4000030C5006930C6000030C7001D
:101720005108C9005008C8000A128A15A3200A12DD
:101730008A15322A023050065104031D322A6830BD
:10174000C4000030C5006930C6000030C700510831
:10175000C9005008C8000A128A15A3200A128A1567
:10176000322A80300A168A15CB250A128A15AA3029
:10177000F3009030F4000A168A115E210A128A15CD
:101780002308F039C400C5014408C6004508C70055
:10179000460E0F39C600470EF039C604470E0F3902
:1017A000C700F030C71D0030C7044608303E0A1697
:1017B0008A15AF250A128A154708C5004608C400D5
:1017C000C40EC50EF030C50544080F39C504F0300D
:1017D000C4054408C6004508C70023080F39C400E3
:1017E000C5014408C6004508C7004608303E0A1631
:1017F0008A15AF250A128A150430F3009130F400DF
:101800000A168A115E210A128A152408F039C400CA
:10181000C5014408C6004508C700460E0F39C6007A
:10182000470EF039C604470E0F39C700F030C71D08
:101830000030C7044608303E0A168A15AF250A1242
:101840008A154708C5004608C400C40EC50EF0300E
:10185000C50544080F39C504F030C4054408C60066
:101860004508C70024080F39C400C5014408C60054
:101870004508C7004608303E0A168A15AF250A12E9
:101880008A150430F3009130F4000A168A115E21A3
:101890000A128A152608F039C400C5014408C6009A
:1018A0004508C700460E0F39C600470EF039C6047A
:1018B000470E0F39C700F030C71D0030C704460877
:1018C000303E0A168A15AF250A128A154708C50048
:1018D0004608C400C40EC50EF030C50544080F39D3
:1018E000C504F030C4054408C6004508C7002608F2
:1018F0000F39C400C5014408C6004508C7004608A2
:10190000303E0A168A15AF250A128A1590300A163B
:101910008A15CB250A128A15B030F3009030F400F6
:101920000A168A115E210A128A152508C400440885
:10193000C0002508C400C5014408FC004508FD009E
:101940000A128A1111200A128A1588300A168A157D
:10195000CB250A128A15A430F3009030F4000A1641
:101960008A115E210A128A152208F039C400C501C5
:101970004408C6004508C700460E0F39C600470E8A
:10198000F039C604470E0F39C700F030C71D0030CC
:10199000C7044608303E0A168A15AF250A128A1572
:1019A0004708C5004608C400C40EC50EF030C50582
:1019B00044080F39C504F030C4054408C600450882
:1019C000C70022080F39C400C5014408C6004508F5
:1019D000C7004608303E0A168A15AF250A128A1536
:1019E000A830F3009030F4000A168A115E210A1222
:1019F0008A152108F039C400C5014408C60045080D
:101A0000C700460E0F39C600470EF039C604470E10
:101A10000F39C700F030C71D0030C7044608303EFC
:101A20000A168A15AF250A128A154708C500460806
:101A3000C400C40EC50EF030C50544080F39C504F6
:101A4000F030C4054408C6004508C70021080F3916
:101A5000C400C5014408C6004508C7004608303E1A
:101A60000A168A15AF250A128A15A830F30090309D
:101A7000F4000A168A115E210A128A152008F0392C
:101A8000C400C5014408C6004508C700460E0F390A
:101A9000C600470EF039C604470E0F39C700F030B4
:101AA000C71D0030C7044608303E0A168A15AF2508
:101AB0000A128A154708C5004608C400C40EC50EA0
:101AC000F030C50544080F39C504F030C40544089A
:101AD000C6004508C70020080F39C400C5014408E6
:101AE000C6004508C7004608C4004408B2004608BE
:101AF000303E0A168A15AF25080001300A168A15ED
:101B0000CB250A128A1580300A168A15CB250A12AF
:101B10008A156930F3009030F4000A168A115E21AC
:101B20000A128A1590300A168A15CB250A128A15D0
:101B3000C630F3009030F4000A168A115E210A12B2
:101B40008A156D08303E0A168A15AF250A128A15C5
:101B50006C08303E0A168A15AF250A128A153C30E9
:101B6000F3009030F4000A168A115E210A128A15D9
:101B70006B08303E0A168A15AF250A128A1588307E
:101B80000A168A15CB250A128A15C130F300903047
:101B9000F4000A168A115E210A128A156A08303E7C
:101BA0000A168A15AF250A128A156908303E0A16E8
:101BB0008A15AF250A128A153C30F3009030F400E4
:101BC0000A168A115E210A128A156808303E0A1622
:101BD0008A15AF250A128A15C401C5010A168A1191
:101BE00060220A128A1502304206031DFE2D4303AD
:101BF000031DFE2D0A168A15EE2408000A168A1106
:101C000060220A128A1503304206031D462E430342
:101C1000031D462E0A168A15EE240A128A159030E4
:101C20000A168A15CB250A128A150630F300903061
:101C3000F4000A168A115E210A128A1590300A16DB
:101C40008A15CB250A128A15C630F3009030F400AD
:101C50000A168A115E210A128A156D08303E0A168C
:101C60008A15AF250A128A156C08303E0A168A15A5
:101C7000AF250A128A153C30F3009030F4000A16A2
:101C80008A115E210A128A156B08E62D0A168A113E
:101C900060220A128A1504304206031D982E43035F
:101CA000031D982E0A168A15EE240A128A1588300A
:101CB0000A168A15CB250A128A150630F3009030D1
:101CC000F4000A168A115E210A128A1588300A1653
:101CD0008A15CB250A128A15C130F3009030F40022
:101CE0000A168A115E210A128A156A08303E0A16FF
:101CF0008A15AF250A128A156908303E0A168A1518
:101D0000AF250A128A153C30F3009030F4000A1611
:101D10008A115E210A128A156808303E0A168A1551
:101D2000AF250A128A150130C4000030C500EE2D1F
:101D30000A168A1160220A128A1504304206031D0F
:101D40004C2F02304306031D4C2F0A168A15EE2431
:101D50000A128A1544084504031DFB2E6D08FC0079
:101D6000FD017C08AB007D08AC006C08FC00FD01A7
:101D70007C08A9007D08AA006B08FC00FD017C0816
:101D8000A7007D08A8000A168A15E1260A128A15FE
:101D9000831203132B08FC007C08ED002908FC00CB
:101DA0007C08EC002708FC007C08EB0092300A1647
:101DB0008A15CB250A128A156D08303E0A168A1537
:101DC000AF250A128A156C08303E0A168A15AF250F
:101DD0000A128A153C30F3009030F4000A168A117A
:101DE0005E210A128A156B08303E0A168A15AF2545
:101DF0000A128A15EE2D44034504031DEE2D6A08D0
:101E0000FC00FD017C08AB007D08AC006908FC000B
:101E1000FD017C08A9007D08AA006808FC00FD01FE
:101E20007C08A7007D08A8000A168A15E1260A1278
:101E30008A15831203132B08FC007C08EA0029088A
:101E4000FC007C08E9002708FC007C08E8008A30D8
:101E50000A168A15CB250A128A156A08303E0A1618
:101E60008A15AF250A128A156908303E0A168A15A6
:101E7000AF250A128A153C30F3009030F4000A16A0
:101E80008A115E210A128A156808303E0A168A15E0
:101E9000AF250A128A15EE2D0A168A1160220A123F
:101EA0008A1503304206031DEE2D02304306031D42
:101EB000EE2D0A168A15EE240A128A1544084504E6
:101EC000031DAF2F6D08FC00FD017C08AB007D08F1
:101ED000AC006C08FC00FD017C08A9007D08AA008C
:101EE0006B08FC00FD017C08A7007D08A8000A160D
:101EF0008A11A7220A128A15831203132B08FC00E9
:101F00007C08ED002908FC007C08EC002708FC0098
:101F10007C08EB0092300A168A15CB250A128A1526
:101F20006D08303E0A168A15AF250A128A156C080C
:101F3000303E0A168A15AF250A128A153C30F30086
:101F40009030F4000A168A115E210A128A156B0875
:101F5000303E0A168A15AF250A128A15EE2D440363
:101F60004504031DEE2D6A08FC00FD017C08AB0052
:101F70007D08AC006908FC00FD017C08A9007D0813
:101F8000AA006808FC00FD017C08A7007D08A800E5
:101F90000A168A11A7220A128A15831203132B0824
:101FA000FC007C08EA002908FC007C08E9002708FE
:101FB000FC007C08E8008A300A168A15CB250A1234
:101FC0008A156A08303E0A168A15AF250A128A1544
:101FD0006908303E0A168A15AF250A128A153C3068
:101FE000F3009030F4000A168A115E210A128A1555
:101FF0006808303E0A168A15AF250A128A15EE2D9A
:102000002034203420342034203420342034203430
:102010002034203420342034203420342034203420
:102020000034543465346D3470342034543468349E
:1020300072346534733468346F346C34643400340F
:102040004E3469346734683474342034533465341E
:102050007434743469346E34673473340034433404
:10206000683461346E3467346534203474346934D0
:102070006D3465342E342E342E34003443346834B9
:1020800061346E34673465342034643461347434BC
:1020900065342E342E342E340034543469346D3487
:1020A00065342034533465347434743469346E3494
:1020B0006734733400344434613474346534203408
:1020C000533465347434743469346E34673473341F
:1020D00000344434613479342034533465347434F6
:1020E000743469346E346734733400345334653473
:1020F00063346F346E34643473340034573465346D
:1021000065346B343A34203400344D3469346E34E1
:102110007534743465340034443461347934203493
:10212000203400344834653461347434203400344D
:10213000543465346D3470343A3400344E34693478
:102140006734683474340034543469346D3465341D
:102150003A34003444346134743465343A340034ED
:102160005734653465346B343A3400344D346F344D
:102170006E347434683400344F344B34203420349B
:1021800000344D3469346E343A3400344D346134A3
:1021900078343A34003443346F346F346C34003460
:1021A0005734653465346B340034593465346134E4
:1021B0007234003448346F34753472340034573418
:1021C0006534643400345434753465340034463432
:1021D0007234693400344D346F346E340034533407
:1021E00075346E34003453346134743400345434F0
:1021F00068347534003444346134793400342F3415
:0C22000020340034433400342F34003408
:10220E00F401F501701C11297208F4070318F50A80
:10221E007308F50701300310F20DF30DFF3E031D99
:10222E00122901300310F10CF00CFF3E031D192989
:10223E0070087104031D09297508F1007408F00077
:10224E000800F7000830F4007408F8007708013928
:10225E00F4007408F6008312031309108316091094
:10226E00000000000000000000007603031D42295C
:10227E008316031309140730F4007408F0000230BB
:10228E000A128A1103200A168A11831603130914DF
:10229E00000000007708F4000310740CF5007508B8
:1022AE00F7000130F8027808031908002D29FA0109
:1022BE00FB017308F8007408F9007908FF0078082C
:1022CE0084000A168A1500200A168A11003A03198C
:1022DE0008007A087307F6007408F5000318F50A6B
:1022EE00FA1BF5037508F700770883120313FF0036
:1022FE00760884000A168A1500200A168A110A1614
:10230E008A15AF250A168A110130FA070318FB0A3F
:10231E000030FB070130F8070318F90A0030F907FF
:10232E006429F501F601700871040319CF29F7012C
:10233E00F70AF11BAE2901300310F00DF10DFF3E2F
:10234E00031DA3290130F4007408F707A0290130FA
:10235E000310F50DF60DFF3E031DAF297108730234
:10236E00031DBB2970087202031CC4297008F202F7
:10237E007108031CF303F302751401300310F10C02
:10238E00F00CFF3E031DC5290130F702031DAE29D7
:10239E007608F1007508F00008003218EF290A30AF
:1023AE00F4007408F0003A080A168A152A250A164F
:1023BE008A11F5006430F6007608F0003B080A1624
:1023CE008A152A2575073907F7007708B400080023
:1023DE00321C08000A30F4007408F0003A080A169D
:1023EE008A152A250A168A11F5006430F600760839
:1023FE00F0003B080A168A152A250A168A11750757
:10240E003907F7007708F800340878020318132A02
:10241E00AD01AE01091108000130AD070318AE0A77
:10242E000030AE0708003218352A0A30F40074085E
:10243E00F0003A080A168A152A250A168A11F5009E
:10244E006430F6007608F0003B080A168A152A2535
:10245E0075073907F7007708B4000800321C08002A
:10246E000A30F4007408F0003A080A168A152A2574
:10247E000A168A11F5006430F6007608F0003B0863
:10248E000A168A152A250A168A1175073907F700C2
:10249E007708F800780834020318592AAD01AE0106
:1024AE00091108000130AD070318AE0A0030AE075F
:1024BE000800831203130714C101C10A4108F30077
:1024CE00F4017308F0007408F1000A168A15B72695
:1024DE000A168A11071087140230F3007308C10020
:1024EE004108F300F4017308F0007408F1000A16B5
:1024FE008A15B7260A168A11871007150330F300BE
:10250E007308C1004108F300F4017308F000740869
:10251E00F1000A168A15B7260A168A1107118715B1
:10252E000430F3007308C1004108F300F40173088E
:10253E00F0007408F1000A168A15B72687110800F4
:10254E00F201F3012B032C04031DC82A0130F207FC
:10255E000318F30A0030F307053029062A04031D79
:10256E00C82A0130F2070318F30A0030F3072708D0
:10257E002804031DC82A0130F2070318F30A00309D
:10258E00F3070330720673040319E32A270828049D
:10259E00031DEE2A0930A7000030A80029082A04DE
:1025AE00031DE72A0930A9000030AA000130AB0252
:1025BE000030031CAC03AC020A168A156F25080006
:1025CE000130A9020030031CAA03AA02E32A01303B
:1025DE00A7020030031CA803A802E32A01300A1642
:1025EE008A15CB250A168A1180300A168A15CB2534
:1025FE000A168A111130F3009030F4000A168A116F
:10260E005E210A168A1190300A168A15CB250A16F3
:10261E008A11FB30F3009030F4000A168A115E2105
:10262E000A168A1188300A168A15CB250A168A11BF
:10263E009E30F3009030F4000A168A115E210A16BD
:10264E008A110A168A1160220A168A11023042066F
:10265E0003194303031908000A168A1160220A1689
:10266E008A1103304206031D4A2B4303031D4A2BD6
:10267E000A168A15EE240A168A110A128A157D2563
:10268E000A168A11282B0A168A1160220A168A1136
:10269E0004304206031D282B4303031D282B0A1664
:1026AE008A15EE240A168A110A128A1147210A1671
:1026BE008A11282B831609140A168A1597270A16CB
:1026CE008A11CC300A168A1128210A168A11443032
:1026DE000A168A1128210A168A110A168A15CB277C
:1026EE000A168A110A168A1597270A168A11CC30ED
:1026FE000A168A1128210A168A11BE300A168A1164
:10270E0028210A168A110A168A1538270A168A11DE
:10271E0083120313C4004408BF000A168A15382713
:10272E000A168A1183120313C4004408BE008316CE
:10273E00091483123E08C40004300310C40DFF3E7A
:10274E00031DA42B3F304405C5003F08C6000430CE
:10275E000310C60CFF3E031DAF2B46084504C700F1
:10276E004708BD003F08C40003300310C40DFF3EF0
:10277E00031DBC2B0310440DC5004508BC000A30D8
:10278E00C4004408F0003D080A168A1546260A16AB
:10279E008A11C5004508BA000A30C4004408F0008A
:1027AE003D080A168A1525260A168A11C5004508FF
:1027BE00BB00AF01B001BC1FEC2B2F08883EAF0051
:1027CE0030080318013E133EB0003C1FF62B2F08B5
:1027DE00C43EAF0030080318013E093EB000BC1ED7
:1027EE00002C2F08E23EAF0030080318013E043ED5
:1027FE00B0003C1E0A2C2F08713EAF0030080318A3
:10280E00013E023EB000E830F0000330F100300827
:10281E00F3002F08F2000A168A1198217008C400DE
:10282E004408B90000000800303046064704031D76
:10283E007C2C98300A168A15CB250A168A11003080
:10284E00F3009030F4000A168A115E210A168A11DE
:10285E0098300A168A15CB250A168A11643044065A
:10286E004504031D502CFB30F3009030F4000A1683
:10287E008A115E210A168A11303046064704031D5E
:10288E007C2C4908F4004808F3000A128A150E2021
:10289E0008006D3044064504031D592CB630F30074
:1028AE009030762C773044064504031D6E2CD030C4
:1028BE00F3009030F4000A168A115E210A168A116E
:1028CE008B300A168A15CB250A168A117C2C793084
:1028DE0044064504031D7C2CD530F3009030F400E3
:1028EE000A168A115E210A168A11643044064504BE
:1028FE0003198B2C6D3044064504031D080064300B
:10290E0046064704031D080048085D3E84008313F5
:10291E0000030319C22C48085D3E840010300006E7
:10292E000319A72C48085D3E8400203000060319C9
:10293E00A72C48085D3E840030300006031DD12CC4
:10294E00FC01FD018312031348085D3E8400013033
:10295E00831380020130FC070318FD0A0030FD07C7
:10296E007D08803AFF0080307F02031DC02C0730A7
:10297E007C02031CA92C831203134908F400480897
:10298E00F3000A128A150E200A168A110A168A15E3
:10299E006F25080048085D3E840001308002C22C7D
:1029AE005F08F039FC00FD017C08C4007D08C500FD
:1029BE00440E0F39C400450EF039C404450E0F39CC
:1029CE00C500F030C51D0030C5044408303E0A165F
:1029DE008A15AF250A168A114508FD004408FC0029
:1029EE00FC0EFD0EF030FD057C080F39FD04F030B5
:1029FE00FC057C08C4007D08C5005F080F39FC008B
:102A0E00FD017C08C4007D08C5004408303E0A164E
:102A1E008A15AF250A168A118230F3009030F40021
:102A2E000A168A115E210A168A115E08F039FC0018
:102A3E00FD017C08C4007D08C500440E0F39C4009A
:102A4E00450EF039C404450E0F39C500F030C51DD2
:102A5E000030C5044408303E0A168A15AF250A1602
:102A6E008A114508FD004408FC00FC0EFD0EF030F6
:102A7E00FD057C080F39FD04F030FC057C08C40010
:102A8E007D08C5005E080F39FC00FD017C08C400FE
:102A9E007D08C5004408303E0A168A15AF250A1671
:102AAE008A118230F3009030F4000A168A115E21EA
:102ABE000A168A115D08F039FC00FD017C08C4007D
:102ACE007D08C500440E0F39C400450EF039C4040C
:102ADE00450E0F39C500F030C51D0030C504440841
:102AEE00303E0A168A15AF250A168A114508FD00D2
:102AFE004408FC00FC0EFD0EF030FD057C080F397D
:102B0E00FD04F030FC057C08C4007D08C5005D089E
:102B1E000F39FC00FD017C08C4007D08C500440887
:102B2E00303E0A168A15AF2508003B08C400C501C1
:102B3E004408F0004508F1006430F2000030F30064
:102B4E000A168A1107210A168A117008C600710822
:102B5E00C7003A08C800C9014808F0004908F1004A
:102B6E000A30F2000030F3000A168A1107210A1605
:102B7E008A1170084607CA0071080318710A4707C0
:102B8E00CB0039084A07D0000030031801304B073C
:102B9E00D1006D08C400C5014408F0004508F100DD
:102BAE006430F2000030F3000A168A1107210A166B
:102BBE008A117008C6007108C7006C08C800C901E8
:102BCE004808F0004908F1000A30F2000030F30026
:102BDE000A168A1107210A168A1170084607CA00BA
:102BEE0071080318710A4707CB006B084A07CC001F
:102BFE000030031801304B07CD006A08C400C50130
:102C0E004408F0004508F1006430F2000030F30093
:102C1E000A168A1107210A168A117008C600710851
:102C2E00C7006908C800C9014808F0004908F1004A
:102C3E000A30F2000030F3000A168A1107210A1634
:102C4E008A1170084607CA0071080318710A4707EF
:102C5E00CB0068084A07CE000030031801304B073E
:102C6E00CF0051084D02031D3E2E50084C02031892
:102C7E00442E0A168A15E92508004F085102031D35
:102C8E004A2E4E0850020318502E0A168A15072691
:102C9E00080051084D02031D562E50084C02031C0D
:102CAE0008004F085102031D5E2E4E085002031CF1
:102CBE0008000A168A155D2508003B08C400C501E8
:102CCE004408F0004508F1006430F2000030F300D3
:102CDE000A168A1107210A168A117008C600710891
:102CEE00C7003A08C800C9014808F0004908F100B9
:102CFE000A30F2000030F3000A168A1107210A1674
:102D0E008A1170084607CA0071080318710A47072E
:102D1E00CB0039084A07D0000030031801304B07AA
:102D2E00D1006708C400C5014408F0004508F10051
:102D3E006430F2000030F3000A168A1107210A16D9
:102D4E008A117008C6007108C7006608C800C9015C
:102D5E004808F0004908F1000A30F2000030F30094
:102D6E000A168A1107210A168A1170084607CA0028
:102D7E0071080318710A4707CB0038084A07CC00C0
:102D8E000030031801304B07CD006508C400C501A3
:102D9E004408F0004508F1006430F2000030F30002
:102DAE000A168A1107210A168A117008C6007108C0
:102DBE00C7003708C800C9014808F0004908F100EB
:102DCE000A30F2000030F3000A168A1107210A16A3
:102DDE008A1170084607CA0071080318710A47075E
:102DEE00CB0036084A07CE000030031801304B07DF
:102DFE00CF0051084D02031D062F50084C02031838
:102E0E000C2F0A168A15E92508004F085102031DDA
:102E1E00122F4E0850020318182F0A168A1507266D
:102E2E00080051084D02031D1E2F50084C02031CB2
:102E3E0008004F085102031D262F4E085002031C96
:102E4E0008000A168A155D2508006008F039FC0096
:102E5E00FD017C08C4007D08C500440E0F39C40076
:102E6E00450EF039C404450E0F39C500F030C51DAE
:102E7E000030C5044408303E0A168A15AF250A16DE
:102E8E008A114508FD004408FC00FC0EFD0EF030D2
:102E9E00FD057C080F39FD04F030FC057C08C400EC
:102EAE007D08C50060080F39FC00FD017C08C400D8
:102EBE007D08C5004408303E0A168A15AF250A164D
:102ECE008A11FF30F3009030F4000A168A115E2149
:102EDE000A168A116108F039FC00FD017C08C40055
:102EEE007D08C500440E0F39C400450EF039C404E8
:102EFE00450E0F39C500F030C51D0030C50444081D
:102F0E00303E0A168A15AF250A168A114508FD00AD
:102F1E004408FC00FC0EFD0EF030FD057C080F3958
:102F2E00FD04F030FC057C08C4007D08C500610876
:102F3E000F39FC00FD017C08C4007D08C500440863
:102F4E00303E0A168A15AF250A168A11FF30F30095
:102F5E009030F4000A168A115E210A168A1163084F
:102F6E00F039FC00FD017C08C4007D08C500440E4C
:102F7E000F39C400450EF039C404450E0F39C50093
:102F8E00F030C51D0030C5044408303E0A168A15BF
:102F9E00AF250A168A114508FD004408FC00FC0EF8
:102FAE00FD0EF030FD057C080F39FD04F030FC05F8
:102FBE007C08C4007D08C50063080F39FC00FD01C4
:102FCE007C08C4007D08C5004408303E0A168A15E8
:102FDE00AF250A168A1188300A168A15CB250A16CD
:102FEE008A117E30F3009030F4000A168A115E21A9
:102FFE000800FF1B0A2883137F1883170008840A12
:10300E000319FF0A08007F087F398A000408840A22
:06301E000319FF0A820005
:1039DC00C301C201C1010800073083169F00890191
:1039EC00831289010800063083169F00023086007E
:1039FC0081010800073083169F00F0308700831286
:103A0C008701080064008001840A0406031900344D
:103A1C000406092D303431343234333434343534F3
:103A2C0036343734383439348312061086128616FD
:103A3C008E300A168A1569260A168A1500300A165F
:103A4C008A15692686120800F300F201731C322DC8
:103A5C007008F1007108F2070310F00D0310F30C5D
:103A6C007308031D2C2D720808007E088A007F083D
:103A7C0082003B250A168A158000840A04087D06FC
:103A8C0003190034FF0A0319FE0A3F2D553429345B
:103A9C00083427340234073422340034023401341D
:103AAC0002340534043402340534053402349E30B7
:103ABC000A168A15CB250A168A15BC30F3009030ED
:103ACC00F4000A168A115E21AD01AE01B50109118F
:103ADC000800F001F1010130F0070318F10A003081
:103AEC00F1077108803AFF00A7307F02031D802D7B
:103AFC001030700203180800712DF001F101013033
:103B0C00F0070318F10A0030F1077108803AFF0042
:103B1C0080307F02031D942D3C3070020318080086
:103B2C00852D073083169F008501880183120515AA
:103B3C000E300A168A15CB250A168A1501300A167C
:103B4C008A15CB250A168A1538300A168A15CB2504
:103B5C000800F2008516051285110A168A158325B0
:103B6C000A168A158312031385150A168A158325DE
:103B7C000A168A1572088312031388000A168A150E
:103B8C0083258312031385110800F200831203139B
:103B9C008512051285110A168A1583250A168A15AF
:103BAC008312031385150A168A1583250A168A159E
:103BBC0072088312031388000A168A158325831250
:103BCC000313851108009E300A168A15CB250A1698
:103BDC008A15CB30F3009030F4000A168A115E215E
:103BEC000A168A150A168A11D4210A168A15143057
:103BFC002D062E04031D08003508031D08000915A9
:103C0C0008009E300A168A15CB250A168A159230A2
:103C1C00F3009030F4000A168A115E210A168A15F8
:103C2C000A168A111A220A168A1514302D062E0429
:103C3C00031D08003508031D080009150800F200D3
:103C4C00F40170080319442EF301F30AF01B352E0E
:103C5C000310F00D0130F1007108F3072C2E031046
:103C6C00F40D70087202031C3F2E7008F2027414DB
:103C7C000310F00C0130F302031D352E74080800FC
:103C8C00F4000830F1007108F500F6017408F10039
:103C9C0007300310F10CFF3E031D4F2E7608F20087
:103CAC0072077104F3007308F6000310F40D70082A
:103CBC007602031C632E7008F6020130F502031D18
:103CCC004C2E76080800F400F201F3018312031362
:103CDC0006120610741806167408F0000310700C07
:103CEC00F1007108F40006140130F2070318F30A0E
:103CFC000030F3077308803AFF0080307F02031D09
:103D0C00892E08307202031C6C2E831203130610CA
:103D1C0008008616BE300A168A1569260A168A15F8
:103D2C00F501F60175085D3E8400831300080A1640
:103D3C008A1569260A168A150130F5070318F60A42
:103D4C000030F6077608803AFF0080307F02031DB2
:103D5C00B12E08307502031C982E831203138612A1
:103D6C000800071EC02EC301C30A7008F2007208B7
:103D7C00C2000800871ECB2E0230F2007208C3006E
:103D8C007008F2007208C2000800071FD62E03301C
:103D9C00F2007208C3007008F2007208C20008003A
:103DAC00871F08000430F2007208C3007008F2008C
:103DBC007208C200080004302B062C040319FA2EDA
:103DCC00093027062804031D052FA701A801093077
:103DDC0029062A04031DFE2EA901AA010130AB07F6
:103DEC000318AC0A0030AC070A168A156F250800B8
:103DFC000130A9070318AA0A0030AA07FA2E0130CD
:103E0C00A7070318A80A0030A807FA2E8312031379
:103E1C008616BF300A168A1569260A168A15F60107
:103E2C00F7010A168A1567270A168A15F50076080F
:103E3C00203E84007508831380000130F6070318B8
:103E4C00F70A0030F7077708803AFF0080307F02CE
:103E5C00031D322F07307602031C172F8312031316
:103E6C0086120800F5010830F4007408F6000310FF
:103E7C00F50C8312031309108316091000000000BF
:103E8C00000000000000000083160313091400005A
:103E9C000000000000000000831203130918F5173E
:103EAC000730F4007408F00002300A128A11032063
:103EBC000A168A150130F6027608031D3D2F750887
:103ECC000800F401831603130616F201F3018312A2
:103EDC00031306107408F0000310700CF100710845
:103EEC00F400061E7E2F74088038F0007008F40071
:103EFC0006140130F2070318F30A0030F3077308B5
:103F0C00803AFF0080307F02031D8E2F0830720232
:103F1C00031C6D2F831603130612831206107408EC
:103F2C000800F501F50A750803190800831203133C
:103F3C000910831609104630F4007408F0000230A2
:103F4C000A128A1103200A168A1583160313091400
:103F5C000830F4007408F00002300A128A110320B1
:103F6C000A168A1583120313091CBF2FF501F50AD3
:103F7C00C02FF5013C30F4007408F00002300A1236
:103F8C008A1103200A168A15992F98300A168A1559
:103F9C00CB250A168A159830F3009030F4000A16D7
:103FAC008A115E210A168A153B08303E0A168A15BC
:103FBC00AF250A168A153A08303E0A168A15AF251F
:103FCC000A168A153C30F3009030F4000A168A1158
:103FDC005E210A168A153908303E0A168A15AF2555
:103FEC000A168A150230F3009130F4000A168A1171
:043FFC005E2108003A
:02400E00323F3F
:00000001FF
