:020000040000FA
:060000000A128A11FC2F18
:100F80000730831603139F0088018312031388011F
:100F9000F001F1018312031308150130F007031863
:100FA000F10A0030F1077108803AFF0093307F02A8
:100FB000031DDC2F88307002031CDF2FE02FCA2FA7
:100FC000F201F3018312031308110130F207031831
:100FD000F30A0030F3077308803AFF0093307F0272
:100FE000031DF42F88307202031CF72FF82FE22F15
:100FF000C82F0A128A11002883010A128A11C02FF1
:02400E00323F3F
:00000001FF
