:020000040000FA
:100000008501880106309F0083160313850183163E
:1000100003138801830183120313FE308500C0306F
:1000200088003A203A20F93088003A203A20A4305B
:1000300088003A203A20B03088003A203A2099309F
:1000400088003A203A20923088003A203A208230C4
:1000500088003A203A20F83088003A203A20803050
:1000600088003A203A20903088003A203A20FC302C
:1000700085000028FF30B000AF30B100B10B3E2842
:06008000B00B3C28080053
:04008600003400340E
:02400E00321866
:00000001FF
