:020000040000FA
:060000000A128A11D42F40
:1005A2000730831603139F008501880108000A1291
:1005B2008A118B260A128A110A128A1133250A120B
:1005C2008A11D82A0A128A110028F2008312031310
:1005D200851205127208880085110A128A115523A4
:1005E2000A128A118312031385150800F20083127E
:1005F2000313851605127208880085110A128A11E2
:1006020055230A128A118312031385150800F2007A
:100612007008F1007108F3000130F302031D122B80
:10062200132B0D2B0130F202031D182B192B092B52
:1006320008007E088A007F0882000A128A111A23A3
:100642000A128A118000840A04087D060319003404
:10065200FF0A0319FE0A1E2B4C3449344E3445342A
:10066200203444344F344534533420344E344F34E0
:1006720054342034453458344934533454340034D7
:10068200303431343234333434343534363437342C
:1006920038343934C034F934A434B034993492340F
:1006A2008234F83480349034F001F1010130F007E3
:1006B2000318F10A0030F1077108803AFF00933005
:1006C2007F02031D662B88307002031C692B6A2B84
:1006D200572B08008312031305150E300A128A11D4
:1006E200E6220A128A1101300A128A11E6220A123D
:1006F2008A1138300A128A11E6220A128A11080077
:10070200F901FA017308F7007408F800A72B7908B9
:100712007307F5007A0803187A0A7407F600750859
:1007220084008317761C831300080A128A11F722A9
:100732000A128A110130F9070318FA0A0030FA077F
:100742000130F7070318F80A0030F8077708840029
:100752008317781C83130008031DB02BB12B882B41
:100762000800F5010830F4007408F6000310F50CD7
:1007720083120313061083160313061000000000F1
:10078200000000000000000083160313061400009E
:10079200000000000000000083120313061CD22B8D
:1007A200D32BD42BF5170730F4007408F000023075
:1007B2000A128A1108230A128A110130F6027608F7
:1007C200031DE42BE52BB72B750808007008710494
:1007D2000319EC2BED2B1C2CF501F50AFB2B013038
:1007E2000310F00DF10DFF3E031DF12B0130F4005B
:1007F2007408F507F11FFE2BFF2BF02B7108730213
:10080200031D052C70087202031C082C092C0F2CE6
:100812007008F2027108031CF303F30201300310A3
:10082200F10CF00CFF3E031D102C0130F502031DEC
:100832001B2C1C2CFF2B7308F1007208F00008001F
:10084200F501F50A552C83120313061083160313C0
:1008520006104630F4007408F00002300A128A11C1
:1008620008230A128A118316031306140830F400AF
:100872007408F00002300A128A1108230A128A113F
:1008820083120313061C462C472C4A2CF501F50A49
:100892004B2CF5013C30F4007408F00002300A12CF
:1008A2008A1108230A128A117508031D592C5A2C21
:1008B200242C0800F7000830F4007408F8007708C8
:1008C2000139F4007408F60083120313061083162C
:1008D2000313061000000000000000000000760371
:1008E200031D742C752C782C831603130614073001
:1008F200F4007408F00002300A128A1108230A1266
:100902008A11831603130614000000007708F4000E
:100912000310740CF5007508F7000130F80278082E
:10092200031D942C952C602C0800FB01FC01760819
:10093200770403199D2C9E2CD52CFD01FD0AAC2CAD
:1009420001300310F60DF70DFF3E031DA22C0130FE
:10095200FA007A08FD07F71FAF2CB02CA12C01304A
:100962000310FB0DFC0DFF3E031DB12C770879022D
:10097200031DBD2C76087802031CC02CC12CC82C88
:100982007608F8027708031CF903F9027B14013098
:100992000310F70CF60CFF3E031DC92C0130FD02BB
:1009A200031DD42CD52CB02C7C08F7007B08F60054
:1009B2000800F601F31FDE2CDF2CE62CF209F30906
:1009C200F20A0319F30AF601F60AF11FE92CEA2CDE
:1009D200EF2CF009F109F00A0319F10A7008710409
:1009E2000319F42CF52C242DF501F50A032D013001
:1009F2000310F00DF10DFF3E031DF92C0130F40040
:100A02007408F507F11F062D072DF82C71087302E3
:100A1200031D0D2D70087202031C102D112D172DB0
:100A22007008F2027108031CF303F3020130031091
:100A3200F10CF00CFF3E031D182D0130F502031DD1
:100A4200232D242D072D76080319282D292D2E2D2F
:100A5200F209F309F20A0319F30A7308F1007208A2
:100A6200F00008000A128A11D1220A128A110A120F
:100A72008A116B230A128A11831203135E08423E03
:100A8200840083130008FB007B08FD007D080A1226
:100A92008A11F7220A128A114630FB007B08F00005
:100AA2000A300A128A1108230A128A1102308312AA
:100AB2000313A0000030A1005D08423E84008313AE
:100AC2000008FB00FC017B08A2007C08A3000A12BC
:100AD2008A1100260A128A114630FB007B08F000B8
:100AE2000A300A128A1108230A128A110330831269
:100AF2000313A0000030A1005C08423E840083136F
:100B02000008FB00FC017B08A2007C08A3000A127B
:100B12008A1100260A128A114630FB007B08F00077
:100B22000A300A128A1108230A128A113D2D08007E
:100B3200F601F11F9D2D9E2DA52DF009F109F00A58
:100B42000319F10AF601F60AF31FA82DA92DB22DF9
:100B5200F209F309F20A0319F30A0130F4007408E6
:100B6200F606F701F801700871040319B92DBA2DC0
:100B7200F12DF501F50AC82D01300310F00DF10D2C
:100B8200FF3E031DBE2D0130F4007408F507F11F6E
:100B9200CB2DCC2DBD2D01300310F70DF80DFF3EEE
:100BA200031DCD2D71087302031DD92D7008720229
:100BB200031CDC2DDD2DE42D7008F2027108031CEC
:100BC200F303F302771401300310F10CF00CFF3E33
:100BD200031DE52D0130F502031DF02DF12DCC2D65
:100BE20076080319F52DF62DFB2DF709F809F70AFA
:100BF2000319F80A7808F1007708F0000800831258
:100C02000313200821040319072E082E0E2E200399
:100C12002104031D0D2E0E2E202E80300A128A1161
:100C2200E6220A128A11831203132208F300230810
:100C3200F4000A128A1181230A128A118A2E0230C2
:100C420020062104031D262E272E2E2E90300A1256
:100C52008A11E6220A128A11142E03302006210478
:100C6200031D342E352E3C2E88300A128A11E622BC
:100C72000A128A11142E043020062104031D422E6A
:100C8200432E4A2E98300A128A11E6220A128A113B
:100C9200142E2008210403194F2E502E8A2E2003D1
:100CA20021040319552E562E8A2E023020062104C5
:100CB20003195C2E5D2E8A2E0330200621040319AF
:100CC200632E642E8A2E04302006210403196A2E14
:100CD2006B2E8A2E28308400A030A4000408A500C0
:100CE2001430A6002408840083130008A700A40A75
:100CF2002508840027088000A50AA60B732E283039
:100D0200F3000030F4000A128A1181230A128A11B8
:100D12008A2E08008316031306140A128A1121244C
:100D22000A128A11CC300A128A115B240A128A1121
:100D320044300A128A115B240A128A111430831277
:100D42000313C0000030C1000A128A1133250A12AF
:100D52008A11FF3083120313C0070318C10AFF3040
:100D6200C1074108803AFF0080307F02031DBB2E7D
:100D7200013040020318BE2EBF2EA52E0A128A1180
:100D820021240A128A11CC300A128A115B240A1217
:100D92008A11BE300A128A115B240A128A110A12BF
:100DA2008A11B2230A128A1183120313BC003C086F
:100DB200E2000A128A11B2230A128A118312031361
:100DC200BC003C08E10083160313061483120313CC
:100DD2006108BC0004300310BC0DFF3E031DEC2E65
:100DE2003F303C05BD006208BE0004300310BE0C5B
:100DF200FF3E031DF72E3E083D04BF003F08E00002
:100E02006208BC0003300310BC0DFF3E031D042F1B
:100E120003103C0DBD003D08DF000A30F000003039
:100E2200F1006008BC00BD013C08F2003D08F3007F
:100E32000A128A11DA240A128A1170088312031321
:100E4200BE003E08DD000A30F0000030F10060080C
:100E5200BC00BD013C08F2003D08F3000A128A11F1
:100E620099250A128A11700883120313BE003E08E4
:100E7200DE00D601D701DF1F3F2F402F482F560833
:100E8200883ED60057080318013E133ED7005F1F65
:100E92004B2F4C2F542F5608C43ED6005708031828
:100EA200013E093ED700DF1E572F582F602F5608EC
:100EB200E23ED60057080318013E043ED7005F1EEB
:100EC200632F642F6C2F5608713ED6005708031803
:100ED200013E023ED700E830F6000330F700570823
:100EE200F9005608F8000A128A1196240A128A1189
:100EF200760883120313BC003C08DC006430F60061
:100F02000030F7005708F3005608F200E830F0000E
:100F12000330F1000A128A11E7230A128A117108BA
:100F2200F9007008F8000A128A1196240A128A112E
:100F3200760883120313BC003C08DB000A30F6007B
:100F42000030F7005708F3005608F2006430F00052
:100F52000030F1000A128A11E7230A128A1171087D
:100F6200F9007008F8000A128A1196240A128A11EE
:100F7200760883120313BC003C08DA000A30F00042
:100F82000030F1005708F3005608F2000A128A11E5
:100F9200E7230A128A11700883120313BC003C086B
:100FA200D900000008008313B430FD000330FE00B6
:100FB2002D30FF00A03084000A128A111E230A126B
:100FC2008A115630FD000330FE004130FF004230EE
:100FD20084000A128A111E230A128A11D601D7012D
:100FE200D801D901DA01DB01DC01DD01DE01DF011B
:0E0FF200E001E101E20183010A128A11D82A0E
:02400E00323F3F
:00000001FF
