:020000040000FA
:100000008701860185018316031383160313831664
:100010000313870186018501830101308700562083
:1000200001308600562001308500562002308700BE
:1000300056200230860056200230850056200430BB
:100040008700562004308600562004308500562054
:10005000083087005620083086005620083085007A
:100060005620103087005620103086005620103061
:1000700085005620203087005620203086005620EC
:1000800020308500562040308700562040308600C2
:100090005620403085005620803087005620803022
:1000A000860056208030850056200D28FF30B00095
:0E00B000FF30B100B10B5A28B00B58280800E1
:0200BE0000340C
:0200C00000340A
:02400E00321866
:00000001FF
