:020000040000FA
:100000000A128A11F32F00308A000408840A82073A
:100010000034C034F934A434B03499349234823486
:10002000F8348034903400345834123408340334B3
:0600300006340634003422
:100C1600831603138501880106309F000230860083
:100C26008101FF30831203138500FF30880008001E
:100C36006430F0000030F100FF30F0070318F10ACD
:100C4600FF30F107700A031D2C2E710A031D2C2E8E
:100C56002D2E1F2E080083120313061086128616E9
:100C66008E300A128A1160260A128A1100300A1280
:100C76008A1160260A128A1183120313861208004B
:100C86000A128A110B260A128A110A128A112E26B4
:100C96000A128A110A128A11B9260A128A110A122E
:100CA6008A118B260A128A110A128A111D270A1224
:100CB6008A11522E0A128A110028F400F201F30159
:100CC6008312031306120610741C6A2E6B2E6C2EEA
:100CD60006167408F0000310700CF1007108F40099
:100CE60006140130F2070318F30A0030F3077308FD
:100CF600803AFF0080307F02031D832E0830720287
:100D0600031C862E872E632E8312031306100800FB
:100D1600831203138616BF300A128A1160260A123E
:100D26008A11F601F7010A128A11E8260A128A11B7
:100D3600F5007608203E8400750883138000013094
:100D4600F6070318F70A0030F7077708803AFF001E
:100D560080307F02031DB12E07307602031CB42EAD
:100D6600B52E962E831203138612080083120313E0
:100D76008616BE300A128A1160260A128A11F501F9
:100D8600F60175080B3E84000A128A1103200A1226
:100D96008A110A128A1160260A128A110130F50791
:100DA6000318F60A0030F6077608803AFF0080300E
:100DB6007F02031DE02E08307502031CE32EE42E8D
:100DC600C42E8312031386120800F401831603133C
:100DD6000616F201F3018312031306107408F000DD
:100DE6000310700CF1007108F400061EFB2EFC2E99
:100DF600012F74088038F0007008F40006140130E2
:100E0600F2070318F30A0030F3077308803AFF006D
:100E160080307F02031D112F08307202031C142F2D
:100E2600152FEE2E831603130612831203130610D4
:100E360074080800831203138618222F232F2F2FDE
:100E46002308F2007208A0002408F2007208A1002C
:100E56002608F2007208A20020080F39F200F301FA
:100E66007208F4007308F5007408013E84000A1243
:100E76008A1103200A128A1188001F3085000A127F
:100E86008A111B260A128A11831203132008F039CD
:100E9600F200F3017208F4007308F500740E0F39BE
:100EA600F400750EF039F404750E0F39F500F030C4
:100EB600F51D0030F5047408013E84000A128A11FB
:100EC60003200A128A1188002F3085000A128A111F
:100ED6001B260A128A118312031321080F39F20006
:100EE600F3017208F4007308F5007408013E8400EB
:100EF6000A128A1103200A128A117F3988003730B4
:100F060085000A128A111B260A128A1183120313FC
:100F16002108F039F200F3017208F4007308F500B5
:100F2600740E0F39F400750EF039F404750E0F398E
:100F3600F500F030F51D0030F5047408013E84001C
:100F46000A128A1103200A128A1188003B30850092
:100F56000A128A111B260A128A1183120313220807
:100F66000F39F200F3017208F4007308F5007408F3
:100F7600013E84000A128A1103200A128A117F395F
:100F860088003D3085000A128A111B260A128A1132
:100F9600831203132208F039F200F3017208F400F9
:100FA6007308F500740E0F39F400750EF039F40469
:100FB600750E0F39F500F030F51D0030F504740894
:100FC600013E84000A128A1103200A128A1188003F
:100FD6003E3085000A128A111B260A128A11080061
:100FE60083120313A001A101A201A301A401A5017B
:0A0FF600A60183010A128A11432E9E
:02400E00323F3F
:00000001FF
